:03000000020008F3
:07006100785F760002000346
:03000300020410E4
:10006800C200C20175E802D2EA753C0590004375EA
:10007800F000120809753D05753E0090004375F0C3
:1000880000120827900041E0F53B7582051207B37E
:10009800754303754405C207D2087582010208C872
:1000A8001207F7C2EA227582FF12073FE582FF3086
:1000B800E502D201EF30E40C7582E1C00712073F78
:1000C800D007C201EF30E615754620E4F547F5483C
:1000D800F54990000075F00012093CD20022AF8269
:1000E800900020EFF085094590002075F000120976
:1000F80021D2E8C20110C10280FB1200AEC2E82280
:10010800900B8BE493900021F090FE00E090002289
:10011800F07509037582071200E6300105785F76ED
:100128000122785F7600227F007E00EE04FD240025
:10013800F582E43400F583E0FC2FFF8D06BE07004E
:1001480040E9EF600E9000217402F0F5097582080D
:100158000200E6900001E0FE7F00900002E0FD7CD6
:10016800004207EC420690004AEFF0EEA3F0C37499
:10017800209F74F49E500F9000217404F0750902BA
:100188007582080200E6900003E0FF784FA607900A
:100198000004E0FF7850A607900005E0FF7851A61C
:1001A800077582231209C475174F75180075194011
:1001B800751A03751B0090FE011209F7900006E0FE
:1001C80090004CF0900048E4F0A3F04387107517B6
:1001D8000A751800751940751A03751B0090000000
:1001E800120A4BAF8774EF5FF5877582001209C456
:1001F80043871075170A751800751940751A037525
:100208001B009000001209F7AF8774EF5FF5877F36
:100218000190004AE0FDA3E0FE74FF2D74013EC387
:1002280013FD7E008F037C00C3EB9DEC9E500C8F6A
:1002380082C0071209C4D0070F80D67509017582DC
:10024800071200E6300105785F760222785F7600B3
:1002580022750E00900001E0F50F900002E0FC7D91
:1002680000900003E0FB7A004DF510EA4CF5118D83
:100278000DAA0F7F0074052AFCE43FFDAB0D7E003C
:10028800C3EB9CEE64808DF063F08095F05017E529
:100298000D04FE2400F582E43400F583E0FD250E0C
:1002A800F50E8E0D80CBE50E600E9000217402F0E5
:1002B800F5097582080200E67E00C3EE950F501618
:1002C800EE244FF974052E2400F582E43400F583FA
:1002D800E0FDF70E80E4E510451170334387108583
:1002E8001082851183A3A3A3751752751800751979
:1002F80040EA24FDF51AEF34FFF51BC007C00212CF
:1003080009F7D002D007AE8774EF5EF58780508A70
:10031800058F06ED2510FDEE3511FEC3ED9420EE98
:1003280094F4502C43871075174F751800751940B1
:10033800850F1A751B00851082851183C007C002BE
:100348001209F7D002D007AE8774EF5EF587800FE9
:100358009000217403F07509027582080200E69086
:100368000048E0FDA3E0FE900048EA2DF0EF3EA330
:10037800F07509017582071200E6200104785F769E
:100388000322900001E0FF900002E0FD7E00900053
:1003980003E07B004206EB420543871075174F7553
:1003A80018007519408F1A751B008E828D83C0073F
:1003B800C006C005120A4BD005D006D007AC87741A
:1003C800EF5CF587EE4D701875174FF518751940E5
:1003D800751A03751B0090FE01C007120A4BD0075F
:1003E8007E00C3EE9F5017EE04FD2420F582E4340E
:1003F80000F583EE244FF9E7FCF08D0680E4EF0466
:10040800F5097582070200E6E4F512F513FCFDF51F
:1004180014F515F516C2AFC005C004120068D20263
:100428007509017582091200E6D004D0052002037F
:1004380002062620010302059510000302055EE46A
:10044800F514F515900000E0FA24F550030205575D
:10045800EA240A83F582EA240F83F583E473573A82
:100468007C8912A1B95757572005050404050404CF
:1004780005050505120108E4FCFDF512F513020453
:1004880035785FB601028003020435C005C0041246
:10049800012FD004D005020435785FB6020280032C
:1004A800020435C005C004120259D004D005020464
:1004B80035900048E0FAA3E0FB90004AE0FEA3E094
:1004C800FFEAB50627EBB5072390004CE0F5179037
:1004D800FE00C005C0041209DA785F7601750901CB
:1004E8007582071200E6D004D005801175090175E0
:1004F8008208C005C0041200E6D004D0053001030C
:10050800020435785F7603020435C005C00412037F
:100518008AD004D005020435902710C005C0041203
:100528000B1C7509017582091200E6D004D005027A
:100538000435750901758207C005C0041200E6D0AC
:1005480004D005300102C202785F760002043578D3
:100558005F7603020435785F76000CBC00010DC39A
:1005680074099CE49D50127C007D0090FE00E0FF21
:10057800BFFF03D38001C39202750901758209C0C8
:1005880005C0041200E6D004D005020435785FE601
:10059800706F0512E4B512020513C3742095127426
:1005A8000395134003020435E4F512F513AB167FE7
:1005B800008B828F83A3751703F518C005C004123A
:1005C8000B51E582F5162440F582E43400F583E00A
:1005D800F53B7582051207B3D004D0050CBC0001A9
:1005E8000DC374099CE49D40030204357C007D0022
:1005F80090FE00E0FFBFFF03D38001C39202020414
:10060800350514E4B514020515C37460951474EA2D
:1006180095154003020435785F7600020435120010
:10062800A890FE02E0FF784FA60790FE03E0FE7850
:1006380050A606D2AF8F05E4FFFCEE4207EC420558
:10064800C007C0058F828D83120006D005D007220F
:0E0B8B0010020651BADA5513370000000000C0
:100658008582E710C00280FB85E78222AD82AE83E7
:10066800AFF0AB22AC238B018C021BBBFF011CE952
:100678004A60358D828E838FF0120B35F582C00764
:10068800C006C005C004C003120658AA82D003D011
:1006980004D005D006D0078D828E838FF0EA120A27
:1006A8008BA3AD82AE8380BE22AD82AE83AFF0ABAA
:1006B80024AC258B018C021BBBFF011CE94A602A74
:1006C8008D828E838FF0120B35FAA3AD82AE838AAA
:1006D80082C007C006C005C004C003120658D00374
:1006E800D004D005D006D00780C922AF82C2E98FD6
:1006F80082120658AF82852924852A258526828577
:1007080027838528F0C0071206B1D007D2E98F8267
:1007180022AF82C2E98F82120658AF82852E2285C7
:100728002F23852B82852C83852DF0C00712066424
:10073800D007D2E98F8222AF82C2E98F821206588F
:10074800AF82D2E98F8222AF82C2E98F8212065825
:10075800758200120658AF82D2E98F8222AF82C218
:10076800E98F82120658AF82853082C00712065878
:10077800D007D2E98F8222AF82741F5F4420F582AE
:1007880085312685322785332885342985352A02FF
:1007980006F3AF82741F5FF58285362B85372C856B
:1007A800382D85392E853A2F020719AF82741F5FBD
:1007B8004420F582853B30020765AF82741F5FF5E0
:1007C8008202074FAF8274024FF53B758200120711
:1007D800B3E5AD30E3FB227582001207C20207CCF5
:1007E800AF82C2E874FD5FF53B7582000207B375FE
:1007F80082001207C20207E885823B75820302075E
:10080800B385823185833285F033853C3475350074
:1008180075821012077FE53C24FEF58202080085E8
:10082800823185833285F033740A253EF582853D11
:100838003475350002077FAF8253070F7517FA75B5
:100848001800853F82854083C007120AF385823FDE
:10085800858340D007C37401953FE495405009153E
:100868003F74FFB53F021540533F0F754000E53F09
:10087800C454F04FF53B7582040207B3AF82E541DB
:1008880060034307087402B54103430704300303B8
:100898004307013004034307028F3B7582000207B8
:1008A800B3E582C40354F8FFE54242073005034329
:1008B80007103006034307808F3B7582060207B393
:1008C800AF82753B3F758201C0071207B3753B3F86
:1008D80075821C1207B3753B0775821D1207B3D0CA
:1008E80007854342C205C2068F82C0071208A9D0F5
:1008F80007BF04067EDC7F0580047EF47F018E3FFF
:100908008F4085448212083F754101A2079203A2D5
:10091800089204758270020884858226858327855B
:10092800F028854529752A007582A00206F375828C
:100938006002074FAD82AE83AFF0C007C006C005A6
:10094800120936AC82D005D006D007A947AA48AB11
:1009580049C3E5469C5009E4F54AF54BF54C800A35
:10096800EC2DF54AE43EF54B8F4C89828A838BF057
:10097800E54A120A8BA3E54B120A8BA3E54C120A2F
:100988008B8C2E752F008D2B8E2C8F2D75826102EE
:10099800071985822685832785F028854D29752A9C
:1009A800007582B00206F385822685832785F028A4
:0C09B800854E29752A007582A10206F305
:06003700E478FFF6D8FD9D
:1009C400AF82A2AF92D5C2AFD2FD8FFA20FCFDC296
:1009D400FDA2D592AF22AE82AF83A2AF92D5C2AFB1
:1009E400D2FD8E828F83E517F020FCFDC2FDA2D5D7
:1009F40092AF22AE82AF83A2AF92D5C2AFD2FD8EA8
:100A04001C8F1DAB17AC18AD19A91AAA1B89008A33
:100A14000719B9FF011AE84F6026AE1CAF1D051C6B
:100A2400E4B51C02051D8B828C838DF0120B35F806
:100A3400A3AB82AC838E828F83E8F030FCCF80FB43
:070A4400C2FDA2D592AF2212
:10001500790DE94400601B7A01900B8C784075C915
:1000250000E493F2A308B8000205C9D9F4DAF27521
:02003500C9FF01
:100A4B0085821C85831DAB17AC18AD19A91AAA1B7F
:100A5B0089008A0719B9FF011AE84F6022AE1CAF53
:100A6B001D051CE4B51C02051D8E828F83E0FF8BD8
:100A7B00828C838DF0120A8BA3AB82AC8380D12244
:100A8B0020F71130F6138883A88220F509F6A88386
:100A9B007583002280FEF280F5F022E51745186081
:100AAB00467A01E51725E0F517E518334012F518DE
:100ABB00E5829517E583951840030A80E6C3E51890
:100ACB0013F518E51713F517C3E5829517F5F0E540
:100ADB008395184005F58385F082C3E51813F51847
:080AEB00E51713F517DAE1220B
:10003D007800E84400600A790075C900E4F309D836
:10004D00FC7840E84400600C7901900000E4F0A3D6
:04005D00D8FCD9FAF8
:100AF3007A10E4FBFCE58225E0F582E58333F58398
:100B0300EB33FBEC33FCEB9517F5F0EC9518400653
:090B1300FCABF0438201DADD22A3
:02000600E473A1
:100B1C00AE82AF83EE24FFFCEF34FFFD8C068D0715
:090B2C00EC4D6004000080EC2295
:0D00080075815F120B87E582600302000323
:100B350020F71430F6148883A88220F507E6A883E9
:100B450075830022E280F7E49322E022C2D5E58393
:100B550030E70DD2D5E4C39582F582E49583F5831C
:100B6500E51830E70BE4C39517F517E49518F51864
:100B7500120AA630D50BE4C39582F582E49583F578
:060B8500832275820022AC
:00000001FF
